:100B60003F065B4F666D7D077F6F777C395E7971DD
:010B7000BFC5
:0F0B7100EF7F08A2E092A0D2A1C2A1C313DFF4CC
:010B80002252
:0F0B81007F08C313A2A092E7D2A1C2A1DFF4FFA5
:010B90002242
:100B2900AE05C2A4C2A1D2A4120B71AF06120B71F9
:030B3900C2A42231
:100B3C00C2A4C2A1D2A4EF4401FF120B71120B810B
:020B4C00C2A441
:010B4E002284
:0F0B91003000047D808002E4FD7F8E120B29224C
:100AEE00AC05AB07C200120B91AF03EC75F00A8494
:100AFE00C454F0FEEC75F00A84E5F04EFD020B29AD
:100800007F80120B3CEF5470C4540F75F00AA4FEA5
:10081000EF540F2E1209767F82120B3CEF5470C4F6
:10082000540F75F00AA4FEEF540F2E900001120928
:10083000887F84120B3CEF5470C4540F75F00AA4E7
:10084000FEEF540F2E9000021209887F86120B3C97
:10085000EF5470C4540F75F00AA4FEEF540F2E909D
:1008600000041209887F8A120B3CEF5470C4540FA5
:1008700075F00AA4FEEF540F2E9000031209887F32
:1008800088120B3CEF5470C4540F75F00AA4FEEFAD
:10089000540F2E9000051209887F8C120B3CEF54E8
:1008A00070C4540F75F00AA4FEEF540F2E9000068A
:0308B000020988B2
:1008B30090000612094975F00A849000071209880E
:1008C30090000612094975F00A84900008E5F012B9
:1008D3000988900009742D120988900005120949AE
:1008E30075F00A8490000A120988900005120949DC
:1008F30075F00A8490000BE5F012098890000C74DF
:100903002D12098890000412094975F00A84900099
:100913000D12098890000412094975F00A849000A9
:0D0923000EE5F012098890000FE40209882B
:100A210090000212094975F00A8490001012098899
:100A310090000212094975F00A84900011E5F01244
:100A41000988900012743A1209889000011209492C
:100A510075F00A8490001312098890000112094967
:100A610075F00A84900014E5F0120988900015745D
:100A71003A120988120930FF75F00A8490001612A3
:100A81000988EF75F00A84900017E5F01209889043
:060A9100000FE4020988D9
:100B4F007F80120B3CEF30E707E4FD7F80120AEE47
:010B5F002273
:100B0E007F027E007DA07C00ED1D70011CED4C70FF
:0A0B1E00F7EF1F70011EEF4E70EAA2
:010B280022AA
:1009AA00AA05D2A77580FEC2A7E4F580D2A68F80D9
:1009BA00C2A6120B0ED2A77580FDC2A7E4F580D29B
:1009CA00A68A80C2A6120B0ED2A77580F7C2A7E428
:1009DA00F580D2A68B80C2A6120B0ED2A77580EF25
:1009EA00C2A7E4F580D2A6854280C2A6120B0ED217
:1009FA00A77580BFC2A7E4F580D2A6854380C2A6A8
:100A0A00120B0ED2A775807FC2A7E4F580D2A68505
:070A1A004480C2A6020B0E8E
:100A9700120B4F7D0A7F84120AEE7D367F82120A7F
:100AA700EE7D1E7F80120AEE7B007A0079261208FF
:100AB70000120A21853621853722853923853A2474
:100AC700853C25A93DE521900B6093FFE52293FD29
:100AD700E52393FBE52493F542E52593F543E99355
:070AE700F5441209AA80C1C9
:03000000020BA050
:0C0BA000787FE4F6D8FD758144020A97C6
:10093000BB010689828A83E0225002E722BBFE02C5
:09094000E32289828A83E49322F8
:10094900BB010CE58229F582E5833AF583E0225063
:1009590006E92582F8E622BBFE06E92582F8E222AD
:0D096900E58229F582E5833AF583E49322C7
:10097600BB010689828A83F0225002F722BBFE0160
:02098600F3225A
:10098800F8BB010DE58229F582E5833AF583E8F0A5
:10099800225006E92582C8F622BBFE05E92582C851
:0209A800F22239
:00000001FF
