:0508FC00120901D2A168
:0109010022D3
:10086400D3EF9400EE940040147D707C00ED1D7075
:0D087400011CED4C70F7EF1F70E61E80E3D5
:010881002254
:0A08DE00D2A01208FCC2A00209011A
:0A08E800C2A01208FCD2A002090110
:080825001208DE7FA012088218
:10082D00D2A112090130A00BE509C394FA500405B9
:08083D000980F2C2A1020901C9
:0A08F200D2A0120901D2A1020901EF
:10088200E4FEEF25E0FFC2A112090192A01208FCCA
:0E0892000EBE08EEC2A1120901D2A002090199
:10080000C2A1120901D2A0120901E4FED2A112096B
:1008100001EF25E0FDA2A0E4334DFFC2A1120901C2
:040820000EBE08E818
:0108240022B1
:1008BA00AC07120825AF0412088212082DAF0512E0
:0808CA00088212082D0208E863
:02084500AD07FD
:10084700120825AF0512088212082D1208DE7FA1B3
:0C08570012088212082D1208001208E896
:010863002272
:1008A0001208F27DAA7F171208BA7F647E00120830
:0A08B000647F171208458F9080FE48
:030000000208D221
:0C08D200787FE4F6D8FD7581090208A0CB
:00000001FF
