:100A48003F065B4F666D7D077F6F777C395E7971F6
:050A58007679383F0033
:1009F3001209BAE51264016014850B18850F198575
:100A0300111A7B057D067F0712088F80E675181281
:100A1300751913751A147B127D117F1012088F80BC
:010A2300D200
:03000B000209697E
:10096900C0E0C0D075D000C000C007758C3C758A46
:10097900B00509E50864016019E509640A7029F5FB
:1009890009AF0C7801EF08800123D8FDF50CF5902B
:100999008016E509540370036390FFE509B43C0828
:1009A9007512017590FFC28CD007D000D0D0D0E06D
:0109B900320B
:03001B00020800D8
:10080000C0E0C0F0C0D075D000C000C004C005C0BA
:1008100006C007758D3C758BB0050AE50A64057046
:100820005DF50AE514151470021513AE13AF147CB0
:10083000007D641209148F0BAE13AF147C007D642D
:100840001209147E007F0ACFCDCFCECCCE12091470
:100850008F0FAE13AF147C007D0A1209148D11E5C1
:1008600014B48E1AE513B40115C28C758C3C758ACC
:10087000B0D28C7509007590FFC28E750801D00743
:0F088000D006D005D004D000D0D0D0F0D0E032D8
:1009BA007513017514B0E4F508F512F50DF50EF589
:1009CA0010F50BF50FF511F50C750CFE850C9075ED
:1009DA008911758C3C758AB0758D3C758BB0D2AF18
:0909EA00D2A9D2ABD28CD28E222C
:060A2400C2A77F017E0065
:100A2A00D3EF9400EE940040147D707C00ED1D70AD
:0D0A3A00011CED4C70F7EF1F70E61E80E30D
:010A4700228C
:10088F00AA05D2A6EF900A4893F580C2A6E4F58098
:10089F00D2A77580FEC2A77F01FE120A2AD2A6EA4E
:1008AF0093F580C2A67580FFD2A77580FD120A242A
:1008BF00D2A6EB93F580C2A67580FFD2A77580FBF9
:1008CF00120A24D2A6E51893F580C2A67580FFD22E
:1008DF00A77580F7120A24D2A6E51993F580C2A650
:1008EF007580FFD2A77580EF120A24D2A6E51A935E
:1008FF00F580C2A67580FFD2A77580DFC2A77F01E2
:05090F007E00020A2A2F
:03000000020A5D94
:0C0A5D00787FE4F6D8FD75811A0209F3D9
:10091400BC000BBE0029EF8DF084FFADF022E4CCC7
:10092400F875F008EF2FFFEE33FEEC33FCEE9DEC90
:10093400984005FCEE9DFE0FD5F0E9E4CEFD22EDD6
:10094400F8F5F0EE8420D21CFEADF075F008EF2F20
:10095400FFED33FD4007985006D5F0F222C398FD11
:050964000FD5F0EA22AE
:00000001FF
