:10098C003F065B4F666D7D077F6F777C395E7971B3
:01099C00005A
:0B09B50012097B12080012099D80F857
:10097B00D2A6E4F580C2A6D2A7F580C2A77509104E
:01098B002249
:040959007F057E0098
:10095D00D3EF9400EE940040147D707C00ED1D707B
:0D096D00011CED4C70F7EF1F70E61E80E3DB
:01097A00225A
:0C099D00D2A6EF90098C93F580C2A62230
:1008000075B0FE85B0085308F0E50864F060461244
:10081000095985B0085308F0E50864F0603785B0E1
:1008200008C290E5082482601B24C0601224E060A6
:100830000924F07012E4F509800D7509018008752E
:1008400009028003750903E50864F060CB85B008F0
:100850005308F080F275B0FD85B0085308F0E50844
:1008600064F0604612095985B0085308F0E5086441
:10087000F0603785B008C290E5082483601B24C06F
:10088000601224E0600924F07012750904800D756F
:10089000090580087509068003750907E50864F0F5
:1008A00060CB85B0085308F080F275B0FB85B008C6
:1008B0005308F0E50864F0604612095985B0085302
:1008C00008F0E50864F0603785B008C290E50824B8
:1008D00085601B24C0601224E0600924F07012754A
:1008E0000908800D750909800875090A80037509D2
:1008F0000BE50864F060CB85B0085308F080F27512
:10090000B0F785B0085308F0E50864F060461209B6
:100910005985B0085308F0E50864F0603985B008DF
:10092000C290E5082489601B24C0601224E060099D
:1009300024F0701275090C800D75090D8008750979
:100940000E800375090FE50864F060CB85B008538D
:0909500008F080F2D290AF0922F8
:030000000209A949
:0C09A900787FE4F6D8FD7581090209B5DD
:00000001FF
