:100CCF003F065B4F666D7D077F6F777C395E79716D
:0A0CDF00BF86DBCFE6EDFD87FFEFD7
:070C7300120C937F017E00CB
:100C7A00EF4E60147DC87C00ED1D70011CED4C70B8
:080C8A00F7EF1F70EB1E80E87C
:010C9200223F
:100C9300C2A27F677E00EF1F70011EEF4E70F7D276
:0E0CA300A27E007F04EF1F70011EEF4E70F75F
:010CB1002220
:100C4F00C2A20FBF0000D2A20FBF00000FBF000053
:100C5F00A2A292007E007F08EF1F70011EEF4E7060
:030C6F00F7A200E9
:010C7200225F
:100CB200E4FD7C01120C4FE433FFC4333333548020
:0C0CC200FEEDC3134EFD0CBC09EAAF05AB
:010CCE002203
:100C07007E01EF139200EFC313FF30001BC2A20B4C
:100C1700BB00000BBB0000D2A27A007B08EB1B7065
:100C2700011AEB4A70F7801BC2A27A007B08EB1B04
:100C370070011AEB4A70F7D2A20BBB00010A0BBB7B
:070C470000010A0EBE09BB0B
:010C4E002283
:0D0D1300120C737FCC120C077F44020C07FA
:100BA400120C737FCC120C077FBE120C07120CB20E
:100BB400AB07120CB2750D008F0EE50E750E00F525
:100BC4000DAF03EF420EE4AC0DAD0E120A03E4FBCD
:100BD400FA7980783D1208F88F0C8E0B8D0A8C09F7
:100BE400E4FFFE7D207C41AB0CAA0BA90AA80912E4
:100BF40008F8E4FBFAF9783F120807120A3C8E0D54
:020C04008F0E51
:010C060022CB
:100D0000120C737F33120C07120CB28F10120CB23C
:020D10008F1141
:010D120022BE
:080D2C007F0A7E3CDEFEDFFAC7
:010D3400229C
:040B2000AB07AA066F
:100B24007C007D0A120ABD8F997C007D64AF03AE00
:100B340002120ABD8F09AE02AF037C007D64120A63
:100B4400BDAF05EF75F00A84FBEF75F00A84AAF0D7
:100B5400C2A6E509900CCF93F580D2A6C2A6C2A77F
:100B64007580FED2A7C2A7120C76C2A6AF03EF907F
:100B74000CDF93F580D2A6C2A6C2A77580FDD2A7CA
:100B8400C2A7120C76AF02EF900CCF93F580D2A6D9
:100B9400C2A67580FBD2A7C2A77F017E00020C7A91
:100CE900120D13750864120BA4120B201508E508E0
:070CF900D3940050F180E9E3
:10080000020AA8E86480F8E933E83360110460F074
:10081000ED33EC337009E8FCE9FDEAFEEBFF22045E
:1008200060DED3EB9FEA9EE99DE8C2E78CF0C2F759
:1008300095F0400CE8CCF8E9CDF9EACEFAEBCFFB25
:10084000120A7385D0F05804700320D5B3E8047001
:10085000075002B2D5020AB292D5EC0460F7E4CC9C
:10086000C0E0C398F8603B94186008400DD0E0FBEE
:10087000020A8AE4FBFAC9FC8028E830E406E4C9ED
:10088000FBE4CAFCE830E305E4C9CACBFCE8540742
:100890006010F8C3E913F9EA13FAEB13FBEC13FC4D
:1008A000D8F130F52FC3E49CFCEF9BFFEE9AFEEDF0
:1008B00099FDD0E0FBEF4E4D4C701222DB03020A93
:1008C000AFEC2CFCEF33FFEE33FEED33FDED30E704
:1008D000EB020A8AEF2BFFEE3AFEED39FDD0E0FB8A
:1008E00050130BBB0003020AB2ED13FDEE13FEEF33
:0808F00013FFEC13FC020A8A5D
:1008F800EC4D6011E8497017ED33EC3304600DE4FA
:10090800FCFFFEFD22E933E8330470F8020AA8125E
:100918000A7358046009E4CC24815006285009025F
:100928000AB2284003020AAFC0E0EB4A7044B9801B
:1009380006D0E0FB020A9EEF4E701CBD8008EBFF5C
:10094800EAFEE9FD80EBE98DF0A4FEE5F00209E19D
:10095800E9CDF9EAFEEBFFEF89F0A4FCE5F0CE89DA
:10096800F0A42EFFE435F0CD89F0A42DFEE435F097
:100978008067EF4E7005BD80D780C3EF8BF0A4ACC5
:10098800F0EE8BF0A42CFCE435F0F8EF8AF0A42C00
:10099800E5F038FCE433CB8DF0A42CFCE5F03BF813
:1009A800EE8AF0A42CFCE5F038F8E433CF89F0A403
:1009B8002CFCE5F038CF3400CE89F0A42FFFE5F009
:1009C8003EFEE433C98DF0A42EFEE5F039CD8AF061
:1009D800A42FFFE5F03EFEE43DFD33D0E0FB5007D9
:1009E8000BBB000F020AB2EC2CFCEF33FFEE33FE18
:0609F800ED33FD020A8A46
:1009FE0075F020800E75F010800575F0087D007E74
:100A0E00007F003392D530D503120B12EC33401019
:100A1E00EF33FFEE33FEED33FDEC33FCD5F0ED227C
:0E0A2E00E5F0247EA2D513CC92E7CDCEFF22B8
:100A3C00EDD2E7CD33EC3392D524814006E4FFFEB2
:100A4C00FDFC22FCE4CFCECDCC24E0501174FF8011
:100A5C00EDC3CC13CCCD13CDCE13CECF13CF0470AE
:070A6C00F030D5DE020B1291
:100A7300E9D2E7C933E833F892D5EDD2E7CD33ECC9
:070A830033FC5002B2D52242
:100A8A00EC30E7100FBF000C0EBE00080DBD0004CD
:100A9A000BEB6014A2D5EB13FCED92E7FD2274FF79
:100AAA00FCFDFEFF22E480F8A2D574FF13FC7D80D2
:030ABA00E480EFE6
:03000000020D20CE
:0C0D2000787FE4F6D8FD758120020CE914
:100ABD00BC000BBE0029EF8DF084FFADF022E4CC1D
:100ACD00F875F008EF2FFFEE33FEEC33FCEE9DECE6
:100ADD00984005FCEE9DFE0FD5F0E9E4CEFD22ED2C
:100AED00F8F5F0EE8420D21CFEADF075F008EF2F76
:100AFD00FFED33FD4007985006D5F0F222C398FD67
:050B0D000FD5F0EA2203
:0E0B1200C3E49FFFE49EFEE49DFDE49CFC22F4
:00000001FF
