:1008BF003F065B4F666D7D077F6F777C395E797181
:100844001208A0750942E50AB40522E4F50AE5098F
:1008540075F06484F508E50975F06484E5F075F0D5
:100864000A84F50BE50975F00A8485F00CAB0CAD30
:080874000BAF0812080080CE52
:06087C00C2A77F017E000F
:10088200D3EF9400EE940040147D707C00ED1D7057
:0D089200011CED4C70F7EF1F70E61E80E3B7
:01089F002236
:1008A000C2A7C2A6E4F50AF509F508F50BF50C7523
:0F08B0008901758C3C758AB0D2AFD2A9D28C2247
:10080000AA05D2A6EF9008BF93F580C2A67580FF17
:10081000D2A77580FE12087CD2A6EA93F580C2A604
:100820007580FFD2A77580FD12087CD2A6EB93F5E8
:1008300080C2A67580FFD2A77580FBC2A77F017E0C
:040840000002088228
:03000B000208DB0D
:0908DB00758C3C758AB0050A32E7
:030000000208CF24
:0C08CF00787FE4F6D8FD75810C02084427
:00000001FF
