:10086E003F065B4F666D7D077F6F777C395E7971D2
:10080000E4F508D2A77580FEC2A7D2A6E508900835
:100810006E93F580C2A6D2B420B4317F057E00125B
:10082000085020B418C2900508E508B40A03E4F59E
:1008300008D2A6E50890086E93F580C2A630B4FDF4
:100840007F057E0012085020B4CE80FBD29080C875
:10085000D3EF9400EE940040147D707C00ED1D7089
:0D086000011CED4C70F7EF1F70E61E80E3E9
:01086D002268
:0300000002087E75
:0C087E00787FE4F6D8FD758108020800C0
:00000001FF
