:0A094F003F065B4F666D7D077F6F6A
:03000B0002096087
:030960000522323B
:030003000208569A
:09085600C0E0C0D075D000C00064
:10085F00300029E522C3943F500AE522C39421407A
:10086F000375210074272521F8A622752200052182
:10087F00E521B4210CD2017521008005752200D22B
:01088F000068
:07089000D000D0D0D0E0320F
:0D093600758902E4F58CF58AD2A9D28C22D5
:07095900D288D2A8D2AF2220
:10080000E5251208F208330808240C0829180838CE
:100810001C084242084C4A084752083D5A082E5EBE
:1008200000000853900950802690095180219009BA
:1008300052801C90095380179009548012900955DA
:10084000800D90095680089009578003900958E45C
:0608500093F580C20222B4
:100897007E01E4FD7C0174272EF8E6D3940740031C
:1008A700430780ECC394085004EFC313FF0E0CBC3E
:1008B70009E474232DF8A607E4FF0DBD04D6D20280
:0108C700220E
:10091800D3EF9400EE940040147D707C00ED1D70C0
:0D092800011CED4C70F7EF1F70E61E80E320
:01093500229F
:1008C800120959120936D2A3E4F580D2A7C2A7307B
:1008D8000105120897C2013002F5120800C2A37F71
:0A08E800647E00120918D2A380E517
:03000000020943AF
:0C094300787FE4F6D8FD7581470208C8F3
:1008F200D083D082F8E4937012740193700DA3A395
:1009020093F8740193F5828883E4737402936860A8
:06091200EFA3A3A380DFA8
:00000001FF
