:10080000750802750958E4F50AF50BD2907F607EF1
:10081000EA120877750A00750B01C3E50B9509E527
:100820000A95085016C290AF0BAE0A12087712084C
:100830006A050BE50B70E3050A80DFC290E5092429
:10084000FFF50BE50834FFF50AD3E50B9400E50A44
:10085000940040B7C290AF0BAE0A12087712086A34
:0A086000E50B150B70E3150A80DFAD
:0D086A00D290C3E509950BFFE508950AFE45
:0A087700EF1F70011E144E70F722EF
:0300000002088172
:0C088100787FE4F6D8FD75810B020800BA
:00000001FF
