:10017E003F065B4F666D7D077F6F777C395E7971C9
:10010700E4FDFCC3ED9FEC9E5015E4FBFA0BBB002E
:0F011700010AEB64704A70F50DBD00010C80E425
:0101260022B6
:07016E00D2A0120175D2A11D
:090175000000000000000000225F
:0A01A900D2A0120175D2A102017567
:0800030012016EC2A00201759A
:0A01B300C2A0120170D2A002017573
:0601270012000312009813
:10012D00E4FFD2A112017530A009EFC394FA500378
:08013D000F80F4C2A10201755C
:0801BD0012016EC2A1020175DE
:10009800E4FEC2A1120175EF30E704D2A08002C2CB
:1000A800A0EF25E0FFD2A11201750EBE08E4C2A19F
:0800B800120175D2A0020175CE
:1000E400C2A1120175D2A0120175E4FED2A11201BF
:1000F40075EF25E0FF30A0010FC2A11201750EBEFD
:0201040008EA07
:0101060022D6
:100145001201277F8012009812012DAF0512009829
:0601550012012D0201B3AE
:0200C000AE0789
:1000C200120127EB4480FF12009812012D12000347
:1000D200AF0512009812012D1200E41201BD1201A7
:0100E200B36A
:0100E30022FA
:10000E00EF75F06484F50AEF75F00A8475F00A84D2
:10001E00A9F0EF75F00A84AFF0D2A6EF90017E93AF
:10002E00F580C2A6D2A77580FBC2A77F057E0012FF
:10003E000107D2A6AF01EF93F580C2A6D2A77580B5
:10004E00FDC2A77F05120107D2A6E50A93F580C26D
:0D005E00A6D2A77580FEC2A77F050201078C
:0F018E00438901E4F58CF58AD2AFD2A9D28C2235
:10015B001201A912018EC2A4C2A6C2A7AF09120036
:03016B000E80F90A
:03000B0002006B85
:10006B00C0E0C0D075D000C003C005C006C0077586
:10007B008C00758A00E4FB7D917F901200C08F0984
:0D008B00D007D006D005D003D0D0D0E03291
:0300000002019D5D
:0C019D00787FE4F6D8FD75810A02015B52
:00000001FF
