:03000B00020A0CDA
:030A0C000522328E
:03000300020800F0
:09080000C0E0C0D075D000C000BA
:10080900300029E522C3943F500AE522C3942140D0
:100819000375210074272521F8A6227522000521D8
:10082900E521B4210CD2017521008005752200D281
:0108390000BE
:07083A00D000D0D0D0E03265
:0D099700758902E4F58CF58AD2A9D28C2274
:070A0500D288D2A8D2AF2273
:10087200E52524F8601A24EC602024CA600D24F8CF
:100882006013244270171209A480121209B1800D5C
:100892001209CB80081209BE80031209D8C20222B3
:100841007E01E4FD7C0174272EF8E6D39407400372
:10085100430780ECC394085004EFC313FF0E0CBC94
:1008610009E474232DF8A607E4FF0DBD04D6D202D6
:010871002264
:0A09F100D2A6E4F580C2A6C2A72238
:030A0F00DFFE22E5
:10096100AE07AF061EEF600C7FF5120A0F7FF5127E
:050971000A0F80EE22D8
:100987007580FFC290D291C2A500D2A5E58033221F
:0C0913007F3812091F7F051209617F3830
:10091F0012098740FBC290C291D2A58F8000C2A559
:01092F0022A5
:1009760012098740FBD290C291D2A58F8000C2A5F2
:01098600224E
:0A09FB007F0112091F7F0502096148
:1008CC00AE07ED7005EE24808003EE24C0FF120904
:1008DC001F120930FF600C120976740129F9E43AF1
:0408EC00FA80EE227E
:10094900AE07AC03ED7005EE24808003EE24C0FFF2
:0809590012091FAF0402097628
:1008F0001209137F051209611209137F0812091FDB
:100900007F0112091F7F0612091F1F1209617F0C48
:0309100002091FBA
:0D09A400D294D295C292D293D296C29722DD
:0D09B100D294D295D292C293C296D29722D0
:0D09BE00D294D295C292D293C296C29722D3
:0D09CB00D294D295C292C293D296C29722C6
:0D09D800D294D295C292C293C296C29722C9
:1008A200120A05120997D2A31209F11208F01209CD
:1008B200FB300105120841C2013002F5120872C272
:0A08C200A37F64120961D2A380E74E
:030000000209E50D
:0C09E500787FE4F6D8FD7581470208A277
:10093000BB010689828A83E0225002E722BBFE02C5
:09094000E32289828A83E49322F8
:00000001FF
