:1008D5003F065B4F666D7D077F6F777C395E79716B
:0808E500FEFDFBF7EFDFBF7F12
:10088200E4F509F50AF50BF508758901758C3C75D7
:100892008AB0D2AFD2A9D28C7509FE850990D2A7AF
:1008A2009008E593F580C2A7D2A69008D5E493F507
:0508B20080C2A680FEDB
:1008B700D3EF9400EE940040147D6E7C00ED1D7024
:0D08C700011CED4C70F7EF1F70E61E80E382
:0108D4002201
:03000B00020800E8
:10080000C0E0C083C082C0D075D000C000C004C0AA
:1008100005C006C007758C3C758AB0050AE50A64F8
:1008200014704CAF097801EF08800123D8FDF50959
:10083000F590750A00050B0508E50BB40803750B68
:1008400000D2A6E50B9008D593F580C2A6E508B4C2
:100850000803750800D2A7E50B9008E593F580C260
:10086000A7E50B700AC2A37F64FE1208B7B2A3D03B
:1008700007D006D005D004D000D0D0D082D083D00D
:02088000E03264
:030000000208ED06
:0C08ED00787FE4F6D8FD75810B020882CC
:00000001FF
