:0E0A83000C0830187A10385A424A5200FFA66A
:0409CC007F057E0025
:1009D000D3EF9400EE940040147D707C00ED1D7008
:0D09E000011CED4C70F7EF1F70E61E80E368
:0109ED0022E7
:0D0A92007F3F7E00EF1F70011EEF4E70F7DA
:010A9F002234
:0D0AA0007F047E02EF1F70011EEF4E70F705
:010AAD002226
:1009EE00D3EF9400EE94004009B295EF1F70F11E04
:0309FE0080EE2266
:0C0AD5007F2A7E001209EED295020A92E0
:100A01007F2A7E001209EED295120A92120A9202F0
:020A11000A9247
:0C0AE1007FB27E021209EED295020AA03C
:10096B00AD07ED30E705120A018003120AD5ED3011
:10097B00E605120A018003120AD5ED30E505120ACD
:10098B00018003120AD5ED30E405120A018003122F
:10099B000AD5ED30E305120A018003120AD5ED30BA
:1009AB00E205120A018003120AD5ED30E105120AA5
:1009BB00018003120AD5ED30E003020A01120AD5B9
:0109CB002209
:030AAE00120AE148
:0A0AB100AF1112096BAF1202096BBE
:0D0ABB00120AAEAF0812096BAF0802096BFA
:0D0AC800120AAEAF0912096BAF0902096BEB
:100A1300120AE1120AB1AF0A12096BAF0A02096B9B
:100A2300120AE1120AB1AF0B12096BAF0B02096B89
:100A3300120AE1120AB1AF0C12096BAF0C02096B77
:100A4300120AE1120AB1AF0D12096BAF0D02096B65
:100A5300120AE1120AB1AF0E12096BAF0E02096B53
:100A6300120AE1120AB1AF0F12096BAF0F02096B41
:100A7300120AE1120AB1AF1012096BAF1002096B2F
:1008000075B0FE85B0145314F0E51464F060441222
:1008100009CC85B0145314F0E51464F0603585B04C
:1008200014E5142482601B24C0601224E0600924B3
:10083000F07012120ABB800D120AC88008120A1347
:100840008003120A23E51464F060CD85B0145314BC
:10085000F080F275B0FD85B0145314F0E51464F027
:1008600060441209CC85B0145314F0E51464F060B0
:100870003585B014E5142483601B24C0601224E085
:10088000600924F07012120A33800D120A438008A6
:10089000120A538003120A63E51464F060CD85B038
:1008A000145314F080F275B0FB85B0145314F0E5C6
:1008B0001464F060291209CC85B0145314F0E514C7
:1008C00064F0601A85B014E51424157003120A73DD
:0E08D000E51464F060E885B0145314F080F273
:0108DE0022F7
:050AED0012080080FB6F
:030000000208DF14
:0C08DF00787FE4F6D8FD7581140209262C
:1008EB00020AEDE493A3F8E493A34003F68001F22C
:1008FB0008DFF48029E493A3F85407240CC8C3330E
:10090B00C4540F4420C8834004F456800146F6DFDC
:10091B00E4800B0102040810204080900A83E47EDF
:10092B00019360BCA3FF543F30E509541FFEE493D1
:10093B00A360010ECF54C025E060A840B8E493A398
:10094B00FAE493A3F8E493A3C8C582C8CAC583CAC3
:10095B00F0A3C8C582C8CAC583CADFE9DEE780BE7B
:010A91000064
:00000001FF
