:0A090C003F065B4F666D7D077F6FAD
:10086500EFD394004011E4FDFC0DBD00010CED64D7
:070875007D4C70F51F80E9C6
:01087C002259
:1008BE00438910758DFFE4F58BD2AFD2ABD28E2269
:0C08DE00D2A000D2A100C2A000C2A12242
:0C08EA00C2A000D2A100D2A000C2A12236
:0A08AA00AC071208DE7F9012084828
:0A08B400C2A000D2A100C2A10022E0
:0A090200D2A000D2A100C2A1002281
:100848007E08AD07C2A100ED30E704D2A08002C245
:0C085800A0D2A1EF25E0FDFFDEE8C2A168
:010864002271
:10080000E4FFFE7D08D2A0C2A100D2A10030A00565
:1008100043070180035307FEED146005EF25E0FE5A
:03082000FFDDE415
:0108230022B2
:100894001208AA7F401208481208B4AF041208488C
:0608A4001208B40208EA8C
:100824001208AAEC4440FF1208481208B41208DE69
:100834007F911208481208B4120800C2A1120902DA
:030844001208EAAD
:01084700228E
:03091600D2A32247
:1008CE00D2A7E4F580C2A7D2A6F580C2A6C2A42202
:10087D001208BE1208CE120916AF101208940510F8
:07088D007F1412086580F2E0
:030000000208F6FD
:0C08F600787FE4F6D8FD75811102087DC2
:00000001FF
