:1008C6003F065B4F666D7D077F6F777C395E79717A
:100844001208A7E50AB40A2CE4F50A0509E509B477
:10085400FF03E4F509E50975F06484F508E5097515
:10086400F06484E5F075F00A84F50BE50975F00A87
:0F0874008485F00CAB0CAD0BAF0812080080C4EC
:06088300C2A77F017E0008
:10088900D3EF9400EE940040147D707C00ED1D7050
:0D089900011CED4C70F7EF1F70E61E80E3B0
:0108A600222F
:1008A700C2A7C2A6E4F509F50AF508F50BF50C751C
:0F08B7008901758C3C758AB0D2AFD2A9D28C2240
:10080000AA05D2A6EF9008C693F580C2A67580FF10
:10081000D2A77580FE120883D2A6EA93F580C2A6FD
:100820007580FFD2A77580FD120883D2A6EB93F5E1
:1008300080C2A67580FFD2A77580FBC2A77F017E0C
:040840000002088921
:03000B000208E206
:0908E200758C3C758AB0050A32E0
:030000000208D61D
:0C08D600787FE4F6D8FD75810C02084420
:00000001FF
