:100962002059595920414E4420594A4720002046D7
:080972004F524556455220008A
:0A09C200D2A6E4F580C2A6C2A72267
:0309D600DFFE221F
:10090C007F081208A47F011208A47F061208A41FF6
:10091C00AE07AF061EEF600C7FF51209D67FF512FD
:05092C0009D680EE2257
:10098B007580FFC290D291C2A500D2A5E58033221B
:100884007F381208A47F0512091C7F381208A47F40
:100894000512091C7F381208A47F0512091C7F3831
:1008A40012098B40FBC290C291D2A58F8000C2A5D1
:0108B4002221
:10097A0012098B40FBD290C291D2A58F8000C2A5EA
:01098A00224A
:0A09CC007F011208A47F0502091C38
:0808B5007BFF7A097962E4FD82
:1008BD00AE07ED7005EE24808003EE24C0FF120814
:1008CD00A4120931FF600C12097A740129F9E43A76
:0408DD00FA80EE228D
:10094A00AE07AC03ED7005EE24808003EE24C0FFF1
:08095A001208A4AF0402097A9F
:0B09B70012088412090C7F0C0208A437
:10099B0012088412090C7F0C1208A47F070208A40A
:0908E1007F011208A47F327E00A1
:1008EA008E0E8F0FD3EF9400EE940040147D707C2F
:1008FA0000ED1D70011CED4C70F7EF1F70E61E80B5
:01090A00E309
:01090B0022C9
:100800001209C212099B1209CC750928AF091208F6
:10081000B5E5092402FF7A0979700D1208BDE509D2
:100820006418704A7A0979621D7F061208BD7A0938
:1008300079700D7F081208BD7F887E131208EA7F49
:10084000011208A4750818AF081208B5E5082402BB
:10085000FF7A0979700D1208BD7FF47E011208EA53
:100860001208E11508E508D3940050DB800A7FF4F4
:100870007E011208EA1208E11509E509D394005037
:040880008B020809D6
:030000000209AB47
:0C09AB00787FE4F6D8FD75810F0208008B
:10093100BB010689828A83E0225002E722BBFE02C4
:09094100E32289828A83E49322F7
:00000001FF
