:100207003F065B4F666D7D077F6F777C395E79713F
:02023900C10002
:1001F600D2A7758001C286C2A7D2A6E4F580C2A6A0
:0102060022D5
:05000300120008D2A16B
:0100080022D5
:1001A200D3EF9400EE940040147D6E7C00ED1D7040
:0D01B200011CED4C70F7EF1F70E61E80E39E
:0101BF00221D
:0A022500D2A0120003C2A0020008DC
:0A022F00C2A0120003D2A0020008D2
:080163001202257FA01201C069
:10016B00D2A112000830A00BE50AC394FA50040583
:08017B000A80F2C2A102000893
:0E021700C2A5C2A4D2A0120008D2A102000803
:1001C000E4FEEF25E0FFC2A112000892A012000396
:0E01D0000EBE08EEC2A1120008D2A002000866
:10011900C2A1120008D2A0120008E4FED2A1120066
:1001290008EF25E0FDA2A0E4334DFFC2A1120008AB
:040139000EBE08E806
:01013D00229F
:1001DE00AC07120163AF041201C012016BAF05121E
:0801EE0001C012016B02022F97
:02018300AD07C6
:10018500120163AF051201C012016B1202257FA196
:0C0195001201C012016B12011912022F9E
:0101A100223B
:1000E000AB05C2A6EF90020793F580D2A6C2A6C2C6
:1000F000A77580FED2A7C2A77F057E001201A2C20B
:10010000A6EB93F580D2A6C2A6C2A77580FDD2A7A2
:09011000C2A77F057E000201A2D6
:10009A001201F61202177F011201838F09E509D3B3
:1000AA0094644003E4F509758901D2A9D2AF758C2D
:1000BA003C758AB0D28CE50975F00A84FFE50975AA
:1000CA00F00A84ADF01200E03000EBC200AD097F07
:0600DA00011201DE80E0CE
:03000B0002013EB1
:10013E00C0E0C0D0758C3C758AB00508E508B405E2
:10014E000F7508000509D200E509B46403750900AE
:05015E00D0D0D0E0321A
:0300000002000EED
:0C000E00787FE4F6D8FD758120020055D3
:10001A0002009AE493A3F8E493A34003F68001F262
:10002A0008DFF48029E493A3F85407240CC8C333E7
:10003A00C4540F4420C8834004F456800146F6DFB6
:10004A00E4800B0102040810204080900239E47E0B
:10005A00019360BCA3FF543F30E509541FFEE493AB
:10006A00A360010ECF54C025E060A840B8E493A372
:10007A00FAE493A3F8E493A3C8C582C8CAC583CA9D
:10008A00F0A3C8C582C8CAC583CADFE9DEE780BE55
:01023B0000C2
:00000001FF
