:10089700E4FDFCC3ED9FEC9E5015E4FBFA0BBB0097
:0F08A700010AEB64704A70F50DBD00010C80E48E
:0108B600221F
:0708EB00D2A01208F2D2A115
:0908F200000000000000000022DB
:0A090700D2A01208F2D2A10208F2F9
:08091B001208EBC2A00208F271
:0A091100C2A01208EDD2A00208F205
:0608B70012091B120800EB
:1008BD00E4FFD2A11208F230A009EFC394FA50035D
:0808CD000F80F4C2A10208F241
:080923001208EBC2A10208F268
:10080000E4FEC2A11208F2EF30E704D2A08002C2D7
:10081000A0EF25E0FFD2A11208F20EBE08E4C2A1AB
:080820001208F2D2A00208F256
:10087400C2A11208F2D2A01208F2E4FED2A1120818
:10088400F2EF25E0FF30A0010FC2A11208F20EBE64
:0208940008EA70
:01089600223F
:1008D5001208B77F801208001208BDAF0512080084
:0608E5001208BD0209111A
:02085000AE07F1
:100852001208B7EB4480FF1208001208BD12091BF0
:10086200AF051208001208BD1208741209231209FA
:010872001174
:010873002262
:10082800E4F508F509120907AD097F901208D50506
:10083800097FF47E011208977B017D917F90120851
:08084800508F0885089080E044
:030000000208FBF8
:0C08FB00787FE4F6D8FD7581090208281A
:00000001FF
