:0A00E5003F065B4F666D7D077F6FDD
:0400A9007F057E0051
:1000AD00D3EF9400EE940040147D707C00ED1D7034
:0D00BD00011CED4C70F7EF1F70E61E80E394
:0100CA002213
:10000E00EF75F00A84F50AEF75F00A8485F00BE5BA
:10001E000B9000E593F580D2A6C2A67580FDD2A7FF
:10002E00C2A71200A9E50A93F580D2A6C2A67580D2
:0C003E00FED2A7C2A77F057E000200AD25
:0E00CB00C2A7C2A6D2AF758901D2A9D28C22DB
:10004A001200CB750901AF0912000E20B414120078
:10005A00A920B4F230B4FDE509C3941250E80509A9
:10006A0080E420B5E11200A920B5DB30B5FDE50931
:09007A00D3940140D1150980CD99
:03000B000200836D
:04008300C0E0C0D049
:10008700758CFC758A18E508D395094004C29380DE
:0D00970002D2930508E508B41303750800B4
:0500A400D0D0D0E032D5
:030000000200D922
:0C00D900787FE4F6D8FD75810C02004A27
:00000001FF
