:100E00006F7574206F662072616E676521202020E7
:100E10000044697374616E63653A00636F6D6520A9
:100E20006F6E20626162790000010203040506070B
:020E30000809AF
:0C0F1C00D2A17F647E00120E79C2A122D7
:0D0F0F00D28C20A0FDC28CE4F51F020C6303
:03000B00020F5190
:030F5100051F3247
:100C6300AF8CEFFEAD8A7C00E42DF50AEC3EF5096E
:100C7300E4F58CF58AAC09AD0A120AA37B9A7A993A
:100C830079D9783F1208F8E4FBFA79207841120AFF
:100C930001E4FBFA79207841120807120ADC8F0E6F
:100CA3008E0D8D0C8C0BE47FF07E0AFDFCAB0EAA3F
:100CB3000DA90CA80BD3120C52500EE47F19FEFDA4
:100CC300FCA80BC3120C52500D7BFF7A0E79007DEA
:100CD30001E4FF020E32E47B0AFAF9F8AF0EAE0D1F
:100CE300AD0CAC0B120BB2AC00AD01AE02AF038F77
:100CF300128E118D108C0FE47B0AFAF9F8AF0EAE49
:100D03000DAD0CAC0B120BB2E47B0AFAF9F8120B23
:100D1300B2AC00AD01AE02AF038F168E158D148CED
:100D230013E47B64FAF9F8AF0EAE0DAD0CAC0B1205
:100D33000BB2E47B0AFAF9F8120BB2AC00AD01AEC8
:100D430002AF038F1A8E198D188C17E47BE87A0390
:100D5300F9F8AF0EAE0DAD0CAC0B120BB28F1E8EAD
:100D63001D8D1C8C1B7BFF7A0E79117D01E4FF1214
:100D73000E32E51E7F09120E9BE51A7F0A120E9BA7
:100D8300E516900E28932430FB7D017F0B120EA4F1
:100D93007B2E7D017F0C120EA4E512900E28932466
:100DA30030FB7D017F0D120EA47B437D017F0E126C
:0C0DB3000EA47B4D7D017F0F120EA422C8
:0A0F3400D2A6E4F580C2A6C2A722EF
:030F5400DFFE229B
:100ED900AE07AF061EEF600C7FF5120F547FF512B7
:050EE9000F5480EE2211
:100EFF007580FFC290D291C2A500D2A5E5803322A2
:0C0EBC007F38120EC87F05120ED97F3857
:100EC800120EFF40FBC290C291D2A58F8000C2A52E
:010ED80022F7
:100EEE00120EFF40FBD290C291D2A58F8000C2A5F8
:010EFE0022D1
:0A0F3E007F01120EC87F05020ED9D4
:100E3200AE07ED7005EE24808003EE24C0FF120E93
:100E4200C8120B5DFF600C120EEE740129F9E43A30
:040E5200FA80EE2212
:090E9B00900E28932430FB7D0128
:100EA400AE07AC03ED7005EE24808003EE24C0FF92
:080EB400120EC8AF04020EEE9D
:100E5600120EBC7F05120ED9120EBC7F08120EC8E8
:100E66007F01120EC87F06120EC81F120ED97F0C04
:030E7600020EC8A1
:100E79008E278F28D3EF9400EE940040147D707C68
:100E890000ED1D70011CED4C70F7EF1F70E61E8020
:010E9900E375
:010E9A002235
:090F4800120F34120E56020F3E86
:100DBF00120F48758901D2AFE4F58CF58AD2A97B61
:100DCF00FF7A0E791BFD7F02120E32D2A0120F1C7A
:100DDF0075251D75265630A003120F0FE526152613
:100DEF0070021525D3E5269400E525940050E78081
:010DFF00DA19
:10080000020B48E86480F8E933E83360110460F0D3
:10081000ED33EC337009E8FCE9FDEAFEEBFF22045E
:1008200060DED3EB9FEA9EE99DE8C2E78CF0C2F759
:1008300095F0400CE8CCF8E9CDF9EACEFAEBCFFB25
:10084000120B1385D0F05804700320D5B3E8047060
:10085000075002B2D5020B5292D5EC0460F7E4CCFB
:10086000C0E0C398F8603B94186008400DD0E0FBEE
:10087000020B2AE4FBFAC9FC8028E830E406E4C94C
:10088000FBE4CAFCE830E305E4C9CACBFCE8540742
:100890006010F8C3E913F9EA13FAEB13FBEC13FC4D
:1008A000D8F130F52FC3E49CFCEF9BFFEE9AFEEDF0
:1008B00099FDD0E0FBEF4E4D4C701222DB03020B92
:1008C0004FEC2CFCEF33FFEE33FEED33FDED30E764
:1008D000EB020B2AEF2BFFEE3AFEED39FDD0E0FBE9
:1008E00050130BBB0003020B52ED13FDEE13FEEF92
:0808F00013FFEC13FC020B2ABC
:1008F800EC4D6011E8497017ED33EC3304600DE4FA
:10090800FCFFFEFD22E933E8330470F8020B4812BD
:100918000B1358046009E4CC2481500628500902BE
:100928000B52284003020B4FC0E0EB4A7044B980D9
:1009380006D0E0FB020B3EEF4E701CBD8008EBFFBB
:10094800EAFEE9FD80EBE98DF0A4FEE5F00209E19D
:10095800E9CDF9EAFEEBFFEF89F0A4FCE5F0CE89DA
:10096800F0A42EFFE435F0CD89F0A42DFEE435F097
:100978008067EF4E7005BD80D780C3EF8BF0A4ACC5
:10098800F0EE8BF0A42CFCE435F0F8EF8AF0A42C00
:10099800E5F038FCE433CB8DF0A42CFCE5F03BF813
:1009A800EE8AF0A42CFCE5F038F8E433CF89F0A403
:1009B8002CFCE5F038CF3400CE89F0A42FFFE5F009
:1009C8003EFEE433C98DF0A42EFEE5F039CD8AF061
:1009D800A42FFFE5F03EFEE43DFD33D0E0FB5007D9
:1009E8000BBB000F020B52EC2CFCEF33FFEE33FE77
:0609F800ED33FD020B2AA5
:1009FE00020B52EC5D046005E859047003020B48CB
:100A0E00120B13580460F6EC4860F2EC7004FDFE15
:100A1E00FF22C860DB2481C85009C39860025006CB
:100A2E00020B4F9850CAF582E9294B4A7005AB82EA
:100A3E00020B3E75F0007C1A7880C3EF9BEE9AEDA8
:100A4E0099400DC3EF9BFFEE9AFEED99FDE842F043
:100A5E00DC23ACF0D0E0FFD0E0FED0E0FDAB822096
:100A6E00E7101BEB60BAEC2CFCEF33FFEE33FEED20
:100A7E0033FD020B2AE803F830E705C0F075F000ED
:100A8E00EF2FFFEE33FEED33FD40B830E7C280AA04
:100A9E0075F020800E75F010800575F0087D007ED3
:100AAE00007F003392D530D503120C44EC33401046
:100ABE00EF33FFEE33FEED33FDEC33FCD5F0ED22DC
:0E0ACE00E5F0247EA2D513CC92E7CDCEFF2218
:100ADC00EDD2E7CD33EC3392D524814006E4FFFE12
:100AEC00FDFC22FCE4CFCECDCC24E0501174FF8071
:100AFC00EDC3CC13CCCD13CDCE13CECF13CF04700E
:070B0C00F030D5DE020C44BD
:100B1300E9D2E7C933E833F892D5EDD2E7CD33EC28
:070B230033FC5002B2D522A1
:100B2A00EC30E7100FBF000C0EBE00080DBD00042C
:100B3A000BEB6014A2D5EB13FCED92E7FD2274FFD8
:100B4A00FCFDFEFF22E480F8A2D574FF13FC7D8031
:030B5A00E480EF45
:03000000020F28C4
:0C0F2800787FE4F6D8FD758128020DBF2B
:100B5D00BB010689828A83E0225002E722BBFE0296
:090B6D00E32289828A83E49322C9
:100B760075F008758200EF2FFFEE33FECD33CDCC36
:100B860033CCC58233C5829BED9AEC99E5829840B9
:100B96000CF582EE9BFEED9AFDEC99FC0FD5F0D696
:100BA600E4CEFBE4CDFAE4CCF9A88222B800C1B9C0
:100BB6000059BA002DEC8BF084CFCECDFCE5F0CBFE
:100BC600F97818EF2FFFEE33FEED33FDEC33FCEB37
:100BD60033FB10D703994004EB99FB0FD8E5E4F9F2
:100BE600FA227818EF2FFFEE33FEED33FDEC33FCDF
:100BF600C933C910D7059BE99A4007EC9BFCE99AD3
:100C0600F90FD8E0E4C9FAE4CCFB2275F010EF2F17
:100C1600FFEE33FEED33FDCC33CCC833C810D70717
:100C26009BEC9AE899400AED9BFDEC9AFCE899F852
:0E0C36000FD5F0DAE4CDFBE4CCFAE4C8F922E5
:0E0C4400C3E49FFFE49EFEE49DFDE49CFC22C1
:100C5200EB9FF5F0EA9E42F0E99D42F0E89C45F0F8
:010C6200226F
:00000001FF
